{
  "contractName": "MovieTicketNFTSwap",
  "abi": [
    {
      "inputs": [],
      "stateMutability": "payable",
      "type": "constructor",
      "payable": true
    },
    {
      "anonymous": false,
      "inputs": [
        {
          "indexed": true,
          "internalType": "address",
          "name": "owner",
          "type": "address"
        },
        {
          "indexed": true,
          "internalType": "address",
          "name": "approved",
          "type": "address"
        },
        {
          "indexed": true,
          "internalType": "uint256",
          "name": "tokenId",
          "type": "uint256"
        }
      ],
      "name": "Approval",
      "type": "event"
    },
    {
      "anonymous": false,
      "inputs": [
        {
          "indexed": true,
          "internalType": "address",
          "name": "owner",
          "type": "address"
        },
        {
          "indexed": true,
          "internalType": "address",
          "name": "operator",
          "type": "address"
        },
        {
          "indexed": false,
          "internalType": "bool",
          "name": "approved",
          "type": "bool"
        }
      ],
      "name": "ApprovalForAll",
      "type": "event"
    },
    {
      "anonymous": false,
      "inputs": [
        {
          "indexed": false,
          "internalType": "address",
          "name": "",
          "type": "address"
        },
        {
          "indexed": false,
          "internalType": "uint256",
          "name": "",
          "type": "uint256"
        }
      ],
      "name": "BoughtTickets",
      "type": "event"
    },
    {
      "anonymous": false,
      "inputs": [
        {
          "indexed": false,
          "internalType": "address",
          "name": "",
          "type": "address"
        },
        {
          "indexed": false,
          "internalType": "uint256",
          "name": "",
          "type": "uint256"
        },
        {
          "indexed": false,
          "internalType": "address",
          "name": "",
          "type": "address"
        },
        {
          "indexed": false,
          "internalType": "uint256",
          "name": "",
          "type": "uint256"
        }
      ],
      "name": "SwappedTickets",
      "type": "event"
    },
    {
      "anonymous": false,
      "inputs": [
        {
          "indexed": true,
          "internalType": "address",
          "name": "from",
          "type": "address"
        },
        {
          "indexed": true,
          "internalType": "address",
          "name": "to",
          "type": "address"
        },
        {
          "indexed": true,
          "internalType": "uint256",
          "name": "tokenId",
          "type": "uint256"
        }
      ],
      "name": "Transfer",
      "type": "event"
    },
    {
      "anonymous": false,
      "inputs": [
        {
          "indexed": false,
          "internalType": "address",
          "name": "",
          "type": "address"
        },
        {
          "indexed": false,
          "internalType": "uint256",
          "name": "",
          "type": "uint256"
        }
      ],
      "name": "WithdrawBalance",
      "type": "event"
    },
    {
      "inputs": [
        {
          "internalType": "address",
          "name": "to",
          "type": "address"
        },
        {
          "internalType": "uint256",
          "name": "tokenId",
          "type": "uint256"
        }
      ],
      "name": "approve",
      "outputs": [],
      "stateMutability": "nonpayable",
      "type": "function"
    },
    {
      "inputs": [
        {
          "internalType": "address",
          "name": "owner",
          "type": "address"
        }
      ],
      "name": "balanceOf",
      "outputs": [
        {
          "internalType": "uint256",
          "name": "",
          "type": "uint256"
        }
      ],
      "stateMutability": "view",
      "type": "function",
      "constant": true
    },
    {
      "inputs": [
        {
          "internalType": "uint256",
          "name": "tokenId",
          "type": "uint256"
        }
      ],
      "name": "getApproved",
      "outputs": [
        {
          "internalType": "address",
          "name": "",
          "type": "address"
        }
      ],
      "stateMutability": "view",
      "type": "function",
      "constant": true
    },
    {
      "inputs": [
        {
          "internalType": "address",
          "name": "owner",
          "type": "address"
        },
        {
          "internalType": "address",
          "name": "operator",
          "type": "address"
        }
      ],
      "name": "isApprovedForAll",
      "outputs": [
        {
          "internalType": "bool",
          "name": "",
          "type": "bool"
        }
      ],
      "stateMutability": "view",
      "type": "function",
      "constant": true
    },
    {
      "inputs": [
        {
          "internalType": "uint256",
          "name": "",
          "type": "uint256"
        }
      ],
      "name": "movieTicketPrices",
      "outputs": [
        {
          "internalType": "uint256",
          "name": "",
          "type": "uint256"
        }
      ],
      "stateMutability": "view",
      "type": "function",
      "constant": true
    },
    {
      "inputs": [
        {
          "internalType": "uint256",
          "name": "",
          "type": "uint256"
        }
      ],
      "name": "movieTickets",
      "outputs": [
        {
          "internalType": "uint256",
          "name": "ticketId",
          "type": "uint256"
        },
        {
          "internalType": "string",
          "name": "movieTitle",
          "type": "string"
        },
        {
          "internalType": "uint256",
          "name": "ticketPriceInWei",
          "type": "uint256"
        },
        {
          "internalType": "address",
          "name": "ticketOwner",
          "type": "address"
        },
        {
          "internalType": "uint256",
          "name": "validTillBlock",
          "type": "uint256"
        },
        {
          "internalType": "bool",
          "name": "isSwappable",
          "type": "bool"
        }
      ],
      "stateMutability": "view",
      "type": "function",
      "constant": true
    },
    {
      "inputs": [
        {
          "internalType": "uint256",
          "name": "",
          "type": "uint256"
        }
      ],
      "name": "movieTitles",
      "outputs": [
        {
          "internalType": "string",
          "name": "",
          "type": "string"
        }
      ],
      "stateMutability": "view",
      "type": "function",
      "constant": true
    },
    {
      "inputs": [],
      "name": "name",
      "outputs": [
        {
          "internalType": "string",
          "name": "",
          "type": "string"
        }
      ],
      "stateMutability": "view",
      "type": "function",
      "constant": true
    },
    {
      "inputs": [
        {
          "internalType": "uint256",
          "name": "tokenId",
          "type": "uint256"
        }
      ],
      "name": "ownerOf",
      "outputs": [
        {
          "internalType": "address",
          "name": "",
          "type": "address"
        }
      ],
      "stateMutability": "view",
      "type": "function",
      "constant": true
    },
    {
      "inputs": [
        {
          "internalType": "address",
          "name": "from",
          "type": "address"
        },
        {
          "internalType": "address",
          "name": "to",
          "type": "address"
        },
        {
          "internalType": "uint256",
          "name": "tokenId",
          "type": "uint256"
        }
      ],
      "name": "safeTransferFrom",
      "outputs": [],
      "stateMutability": "nonpayable",
      "type": "function"
    },
    {
      "inputs": [
        {
          "internalType": "address",
          "name": "from",
          "type": "address"
        },
        {
          "internalType": "address",
          "name": "to",
          "type": "address"
        },
        {
          "internalType": "uint256",
          "name": "tokenId",
          "type": "uint256"
        },
        {
          "internalType": "bytes",
          "name": "_data",
          "type": "bytes"
        }
      ],
      "name": "safeTransferFrom",
      "outputs": [],
      "stateMutability": "nonpayable",
      "type": "function"
    },
    {
      "inputs": [
        {
          "internalType": "address",
          "name": "operator",
          "type": "address"
        },
        {
          "internalType": "bool",
          "name": "approved",
          "type": "bool"
        }
      ],
      "name": "setApprovalForAll",
      "outputs": [],
      "stateMutability": "nonpayable",
      "type": "function"
    },
    {
      "inputs": [
        {
          "internalType": "bytes4",
          "name": "interfaceId",
          "type": "bytes4"
        }
      ],
      "name": "supportsInterface",
      "outputs": [
        {
          "internalType": "bool",
          "name": "",
          "type": "bool"
        }
      ],
      "stateMutability": "view",
      "type": "function",
      "constant": true
    },
    {
      "inputs": [],
      "name": "symbol",
      "outputs": [
        {
          "internalType": "string",
          "name": "",
          "type": "string"
        }
      ],
      "stateMutability": "view",
      "type": "function",
      "constant": true
    },
    {
      "inputs": [
        {
          "internalType": "uint256",
          "name": "tokenId",
          "type": "uint256"
        }
      ],
      "name": "tokenURI",
      "outputs": [
        {
          "internalType": "string",
          "name": "",
          "type": "string"
        }
      ],
      "stateMutability": "view",
      "type": "function",
      "constant": true
    },
    {
      "inputs": [
        {
          "internalType": "address",
          "name": "from",
          "type": "address"
        },
        {
          "internalType": "address",
          "name": "to",
          "type": "address"
        },
        {
          "internalType": "uint256",
          "name": "tokenId",
          "type": "uint256"
        }
      ],
      "name": "transferFrom",
      "outputs": [],
      "stateMutability": "nonpayable",
      "type": "function"
    },
    {
      "inputs": [
        {
          "internalType": "uint8",
          "name": "_movieId",
          "type": "uint8"
        }
      ],
      "name": "buyMovieTicket",
      "outputs": [],
      "stateMutability": "payable",
      "type": "function",
      "payable": true
    },
    {
      "inputs": [
        {
          "internalType": "uint256",
          "name": "_tokenId",
          "type": "uint256"
        }
      ],
      "name": "makeTicketSwapable",
      "outputs": [],
      "stateMutability": "nonpayable",
      "type": "function"
    },
    {
      "inputs": [
        {
          "internalType": "uint256",
          "name": "_myTokenId",
          "type": "uint256"
        },
        {
          "internalType": "uint256",
          "name": "_otherTokenID",
          "type": "uint256"
        }
      ],
      "name": "findPriceDifference",
      "outputs": [
        {
          "internalType": "uint256",
          "name": "",
          "type": "uint256"
        }
      ],
      "stateMutability": "view",
      "type": "function",
      "constant": true
    },
    {
      "inputs": [
        {
          "internalType": "address",
          "name": "_recipient",
          "type": "address"
        },
        {
          "internalType": "uint256",
          "name": "_tokenId",
          "type": "uint256"
        }
      ],
      "name": "approveTransfer",
      "outputs": [],
      "stateMutability": "nonpayable",
      "type": "function"
    },
    {
      "inputs": [
        {
          "internalType": "address",
          "name": "_recipient",
          "type": "address"
        },
        {
          "internalType": "uint256",
          "name": "_myTokenId",
          "type": "uint256"
        },
        {
          "internalType": "uint256",
          "name": "_otherTokenID",
          "type": "uint256"
        }
      ],
      "name": "swapTicket",
      "outputs": [],
      "stateMutability": "payable",
      "type": "function",
      "payable": true
    },
    {
      "inputs": [],
      "name": "withdrawMyEtherBalance",
      "outputs": [],
      "stateMutability": "payable",
      "type": "function",
      "payable": true
    },
    {
      "inputs": [
        {
          "internalType": "uint256",
          "name": "_ticketIndex",
          "type": "uint256"
        }
      ],
      "name": "getTicketInformation",
      "outputs": [
        {
          "components": [
            {
              "internalType": "uint256",
              "name": "ticketId",
              "type": "uint256"
            },
            {
              "internalType": "string",
              "name": "movieTitle",
              "type": "string"
            },
            {
              "internalType": "uint256",
              "name": "ticketPriceInWei",
              "type": "uint256"
            },
            {
              "internalType": "address",
              "name": "ticketOwner",
              "type": "address"
            },
            {
              "internalType": "uint256",
              "name": "validTillBlock",
              "type": "uint256"
            },
            {
              "internalType": "bool",
              "name": "isSwappable",
              "type": "bool"
            }
          ],
          "internalType": "struct MovieTicketNFTSwap.MovieTicket",
          "name": "",
          "type": "tuple"
        }
      ],
      "stateMutability": "view",
      "type": "function",
      "constant": true
    },
    {
      "inputs": [],
      "name": "getContractEtherBalance",
      "outputs": [
        {
          "internalType": "uint256",
          "name": "",
          "type": "uint256"
        }
      ],
      "stateMutability": "view",
      "type": "function",
      "constant": true
    },
    {
      "inputs": [],
      "name": "getMyEtherBalance",
      "outputs": [
        {
          "internalType": "uint256",
          "name": "",
          "type": "uint256"
        }
      ],
      "stateMutability": "view",
      "type": "function",
      "constant": true
    }
  ],
  "bytecode": "0x608060405260016009556040518060400160405280600b81526020017f4d6f7669655469636b65740000000000000000000000000000000000000000008152506040518060400160405280600481526020017f4d544b540000000000000000000000000000000000000000000000000000000081525081600090805190602001906200008d929190620001b1565b508060019080519060200190620000a6929190620001b1565b5050506040518060400160405280600881526020017f4176656e676572730000000000000000000000000000000000000000000000008152506006600060018152602001908152602001600020908051906020019062000108929190620001b1565b506040518060400160405280600881526020017f53746172776172730000000000000000000000000000000000000000000000008152506006600060028152602001908152602001600020908051906020019062000168929190620001b1565b50670de0b6b3a7640000600760006001815260200190815260200160002081905550671bc16d674ec80000600760006002815260200190815260200160002081905550620002c5565b828054620001bf9062000290565b90600052602060002090601f016020900481019282620001e357600085556200022f565b82601f10620001fe57805160ff19168380011785556200022f565b828001600101855582156200022f579182015b828111156200022e57825182559160200191906001019062000211565b5b5090506200023e919062000242565b5090565b5b808211156200025d57600081600090555060010162000243565b5090565b7f4e487b7100000000000000000000000000000000000000000000000000000000600052602260045260246000fd5b60006002820490506001821680620002a957607f821691505b602082108103620002bf57620002be62000261565b5b50919050565b6141e080620002d56000396000f3fe6080604052600436106101665760003560e01c806366d15dd1116100d1578063b88d4fde1161008a578063e985e9c511610064578063e985e9c514610562578063e9c66fca1461059f578063ea3b962b146105c8578063fa02c4b7146105f357610166565b8063b88d4fde146104e0578063c87b56dd14610509578063d773ad2c1461054657610166565b806366d15dd1146103b457806370a08231146103f657806375f857ae1461043357806395d89b4114610470578063a22cb4651461049b578063b5f83435146104c457610166565b80631032f8f7116101235780631032f8f71461028057806323b872dd146102bd57806330e76dae146102e657806342842e0e146103115780635f2eaeb11461033a5780636352211e1461037757610166565b806301ffc9a71461016b57806306fdde03146101a8578063081812fc146101d3578063095ea7b3146102105780630cae4709146102395780630dda28f814610276575b600080fd5b34801561017757600080fd5b50610192600480360381019061018d9190612a62565b61061c565b60405161019f9190612aaa565b60405180910390f35b3480156101b457600080fd5b506101bd6106fe565b6040516101ca9190612b5e565b60405180910390f35b3480156101df57600080fd5b506101fa60048036038101906101f59190612bb6565b610790565b6040516102079190612c24565b60405180910390f35b34801561021c57600080fd5b5061023760048036038101906102329190612c6b565b610815565b005b34801561024557600080fd5b50610260600480360381019061025b9190612bb6565b61092c565b60405161026d9190612cba565b60405180910390f35b61027e610944565b005b34801561028c57600080fd5b506102a760048036038101906102a29190612bb6565b610b3d565b6040516102b49190612b5e565b60405180910390f35b3480156102c957600080fd5b506102e460048036038101906102df9190612cd5565b610bdd565b005b3480156102f257600080fd5b506102fb610c3d565b6040516103089190612cba565b60405180910390f35b34801561031d57600080fd5b5061033860048036038101906103339190612cd5565b610c45565b005b34801561034657600080fd5b50610361600480360381019061035c9190612d28565b610c65565b60405161036e9190612cba565b60405180910390f35b34801561038357600080fd5b5061039e60048036038101906103999190612bb6565b610d86565b6040516103ab9190612c24565b60405180910390f35b3480156103c057600080fd5b506103db60048036038101906103d69190612bb6565b610e37565b6040516103ed96959493929190612d68565b60405180910390f35b34801561040257600080fd5b5061041d60048036038101906104189190612dd0565b610f38565b60405161042a9190612cba565b60405180910390f35b34801561043f57600080fd5b5061045a60048036038101906104559190612bb6565b610fef565b6040516104679190612efd565b60405180910390f35b34801561047c57600080fd5b50610485611158565b6040516104929190612b5e565b60405180910390f35b3480156104a757600080fd5b506104c260048036038101906104bd9190612f4b565b6111ea565b005b6104de60048036038101906104d99190612fc4565b611200565b005b3480156104ec57600080fd5b5061050760048036038101906105029190613126565b6114ed565b005b34801561051557600080fd5b50610530600480360381019061052b9190612bb6565b61154f565b60405161053d9190612b5e565b60405180910390f35b610560600480360381019061055b91906131a9565b6115f6565b005b34801561056e57600080fd5b50610589600480360381019061058491906131fc565b611a72565b6040516105969190612aaa565b60405180910390f35b3480156105ab57600080fd5b506105c660048036038101906105c19190612bb6565b611b06565b005b3480156105d457600080fd5b506105dd611c12565b6040516105ea9190612cba565b60405180910390f35b3480156105ff57600080fd5b5061061a60048036038101906106159190612c6b565b611c59565b005b60007f80ac58cd000000000000000000000000000000000000000000000000000000007bffffffffffffffffffffffffffffffffffffffffffffffffffffffff1916827bffffffffffffffffffffffffffffffffffffffffffffffffffffffff191614806106e757507f5b5e139f000000000000000000000000000000000000000000000000000000007bffffffffffffffffffffffffffffffffffffffffffffffffffffffff1916827bffffffffffffffffffffffffffffffffffffffffffffffffffffffff1916145b806106f757506106f682611ce5565b5b9050919050565b60606000805461070d9061326b565b80601f01602080910402602001604051908101604052809291908181526020018280546107399061326b565b80156107865780601f1061075b57610100808354040283529160200191610786565b820191906000526020600020905b81548152906001019060200180831161076957829003601f168201915b5050505050905090565b600061079b82611d4f565b6107da576040517f08c379a00000000000000000000000000000000000000000000000000000000081526004016107d19061330e565b60405180910390fd5b6004600083815260200190815260200160002060009054906101000a900473ffffffffffffffffffffffffffffffffffffffff169050919050565b600061082082610d86565b90508073ffffffffffffffffffffffffffffffffffffffff168373ffffffffffffffffffffffffffffffffffffffff1603610890576040517f08c379a0000000000000000000000000000000000000000000000000000000008152600401610887906133a0565b60405180910390fd5b8073ffffffffffffffffffffffffffffffffffffffff166108af611dbb565b73ffffffffffffffffffffffffffffffffffffffff1614806108de57506108dd816108d8611dbb565b611a72565b5b61091d576040517f08c379a000000000000000000000000000000000000000000000000000000000815260040161091490613432565b60405180910390fd5b6109278383611dc3565b505050565b60076020528060005260406000206000915090505481565b6000600860003373ffffffffffffffffffffffffffffffffffffffff1673ffffffffffffffffffffffffffffffffffffffff16815260200190815260200160002054116109c6576040517f08c379a00000000000000000000000000000000000000000000000000000000081526004016109bd9061349e565b60405180910390fd5b6000600860003373ffffffffffffffffffffffffffffffffffffffff1673ffffffffffffffffffffffffffffffffffffffff1681526020019081526020016000205490506000600860003373ffffffffffffffffffffffffffffffffffffffff1673ffffffffffffffffffffffffffffffffffffffff1681526020019081526020016000208190555060003373ffffffffffffffffffffffffffffffffffffffff16826108fc90604051610a79906134ef565b600060405180830381858888f193505050503d8060008114610ab7576040519150601f19603f3d011682016040523d82523d6000602084013e610abc565b606091505b5050905080610b00576040517f08c379a0000000000000000000000000000000000000000000000000000000008152600401610af790613550565b60405180910390fd5b7f0875ab8e60d8ffe0781ba5e1d1adadeb6250bc1bee87d3094cc6ac4eb9f885123383604051610b31929190613570565b60405180910390a15050565b60066020528060005260406000206000915090508054610b5c9061326b565b80601f0160208091040260200160405190810160405280929190818152602001828054610b889061326b565b8015610bd55780601f10610baa57610100808354040283529160200191610bd5565b820191906000526020600020905b815481529060010190602001808311610bb857829003601f168201915b505050505081565b610bee610be8611dbb565b82611e7c565b610c2d576040517f08c379a0000000000000000000000000000000000000000000000000000000008152600401610c249061360b565b60405180910390fd5b610c38838383611f5a565b505050565b600047905090565b610c60838383604051806020016040528060008152506114ed565b505050565b60008282600a600182610c78919061365a565b81548110610c8957610c8861368e565b5b906000526020600020906006020160020154600a600184610caa919061365a565b81548110610cbb57610cba61368e565b5b9060005260206000209060060201600201541115610d0e576040517f08c379a0000000000000000000000000000000000000000000000000000000008152600401610d0590613709565b60405180910390fd5b600a600186610d1d919061365a565b81548110610d2e57610d2d61368e565b5b906000526020600020906006020160020154600a600186610d4f919061365a565b81548110610d6057610d5f61368e565b5b906000526020600020906006020160020154610d7c919061365a565b9250505092915050565b6000806002600084815260200190815260200160002060009054906101000a900473ffffffffffffffffffffffffffffffffffffffff169050600073ffffffffffffffffffffffffffffffffffffffff168173ffffffffffffffffffffffffffffffffffffffff1603610e2e576040517f08c379a0000000000000000000000000000000000000000000000000000000008152600401610e259061379b565b60405180910390fd5b80915050919050565b600a8181548110610e4757600080fd5b9060005260206000209060060201600091509050806000015490806001018054610e709061326b565b80601f0160208091040260200160405190810160405280929190818152602001828054610e9c9061326b565b8015610ee95780601f10610ebe57610100808354040283529160200191610ee9565b820191906000526020600020905b815481529060010190602001808311610ecc57829003601f168201915b5050505050908060020154908060030160009054906101000a900473ffffffffffffffffffffffffffffffffffffffff16908060040154908060050160009054906101000a900460ff16905086565b60008073ffffffffffffffffffffffffffffffffffffffff168273ffffffffffffffffffffffffffffffffffffffff1603610fa8576040517f08c379a0000000000000000000000000000000000000000000000000000000008152600401610f9f9061382d565b60405180910390fd5b600360008373ffffffffffffffffffffffffffffffffffffffff1673ffffffffffffffffffffffffffffffffffffffff168152602001908152602001600020549050919050565b610ff7612905565b600a600183611006919061365a565b815481106110175761101661368e565b5b90600052602060002090600602016040518060c00160405290816000820154815260200160018201805461104a9061326b565b80601f01602080910402602001604051908101604052809291908181526020018280546110769061326b565b80156110c35780601f10611098576101008083540402835291602001916110c3565b820191906000526020600020905b8154815290600101906020018083116110a657829003601f168201915b50505050508152602001600282015481526020016003820160009054906101000a900473ffffffffffffffffffffffffffffffffffffffff1673ffffffffffffffffffffffffffffffffffffffff1673ffffffffffffffffffffffffffffffffffffffff168152602001600482015481526020016005820160009054906101000a900460ff1615151515815250509050919050565b6060600180546111679061326b565b80601f01602080910402602001604051908101604052809291908181526020018280546111939061326b565b80156111e05780601f106111b5576101008083540402835291602001916111e0565b820191906000526020600020905b8154815290600101906020018083116111c357829003601f168201915b5050505050905090565b6111fc6111f5611dbb565b83836121c0565b5050565b60008160ff16118015611217575060028160ff1611155b611256576040517f08c379a000000000000000000000000000000000000000000000000000000000815260040161124d90613899565b60405180910390fd5b600760008260ff1681526020019081526020016000205434146112ae576040517f08c379a00000000000000000000000000000000000000000000000000000000081526004016112a590613905565b60405180910390fd5b60006040518060c001604052806009548152602001600660008560ff16815260200190815260200160002080546112e49061326b565b80601f01602080910402602001604051908101604052809291908181526020018280546113109061326b565b801561135d5780601f106113325761010080835404028352916020019161135d565b820191906000526020600020905b81548152906001019060200180831161134057829003601f168201915b50505050508152602001600760008560ff1681526020019081526020016000205481526020013373ffffffffffffffffffffffffffffffffffffffff168152602001600a436113ac9190613925565b8152602001600015158152509050600a81908060018154018082558091505060019003906000526020600020906006020160009091909190915060008201518160000155602082015181600101908051906020019061140c929190612953565b506040820151816002015560608201518160030160006101000a81548173ffffffffffffffffffffffffffffffffffffffff021916908373ffffffffffffffffffffffffffffffffffffffff1602179055506080820151816004015560a08201518160050160006101000a81548160ff02191690831515021790555050506114963360095461232c565b7f5ac1e8711bdeb08bd759a947d21ad2a11f11507195de0eab7423b5998259630e336009546040516114c9929190613570565b60405180910390a1600960008154809291906114e49061397b565b91905055505050565b6114fe6114f8611dbb565b83611e7c565b61153d576040517f08c379a00000000000000000000000000000000000000000000000000000000081526004016115349061360b565b60405180910390fd5b6115498484848461234a565b50505050565b606061155a82611d4f565b611599576040517f08c379a000000000000000000000000000000000000000000000000000000000815260040161159090613a35565b60405180910390fd5b60006115a36123a6565b905060008151116115c357604051806020016040528060008152506115ee565b806115cd846123bd565b6040516020016115de929190613a91565b6040516020818303038152906040525b915050919050565b816002436116049190613925565b600a600183611613919061365a565b815481106116245761162361368e565b5b90600052602060002090600602016004015411611676576040517f08c379a000000000000000000000000000000000000000000000000000000000815260040161166d90613b01565b60405180910390fd5b816002436116849190613925565b600a600183611693919061365a565b815481106116a4576116a361368e565b5b906000526020600020906006020160040154116116f6576040517f08c379a00000000000000000000000000000000000000000000000000000000081526004016116ed90613b01565b60405180910390fd5b8383600a600182611707919061365a565b815481106117185761171761368e565b5b906000526020600020906006020160020154600a600184611739919061365a565b8154811061174a5761174961368e565b5b906000526020600020906006020160020154111561179d576040517f08c379a000000000000000000000000000000000000000000000000000000000815260040161179490613709565b60405180910390fd5b600a6001876117ac919061365a565b815481106117bd576117bc61368e565b5b906000526020600020906006020160020154600a6001876117de919061365a565b815481106117ef576117ee61368e565b5b90600052602060002090600602016002015461180b919061365a565b341461184c576040517f08c379a000000000000000000000000000000000000000000000000000000000815260040161184390613b6d565b60405180910390fd5b611857338888610bdd565b86600a600188611867919061365a565b815481106118785761187761368e565b5b906000526020600020906006020160030160006101000a81548173ffffffffffffffffffffffffffffffffffffffff021916908373ffffffffffffffffffffffffffffffffffffffff1602179055506118d2873387610bdd565b33600a6001876118e2919061365a565b815481106118f3576118f261368e565b5b906000526020600020906006020160030160006101000a81548173ffffffffffffffffffffffffffffffffffffffff021916908373ffffffffffffffffffffffffffffffffffffffff16021790555034600860008973ffffffffffffffffffffffffffffffffffffffff1673ffffffffffffffffffffffffffffffffffffffff16815260200190815260200160002060008282546119919190613925565b925050819055506000600a6001886119a9919061365a565b815481106119ba576119b961368e565b5b906000526020600020906006020160050160006101000a81548160ff0219169083151502179055506000600a6001876119f3919061365a565b81548110611a0457611a0361368e565b5b906000526020600020906006020160050160006101000a81548160ff0219169083151502179055507f4903ed10f044511b16d3591a9c199f45aa9ab35aee43339790cd8e6a55a1ff7033878988604051611a619493929190613b8d565b60405180910390a150505050505050565b6000600560008473ffffffffffffffffffffffffffffffffffffffff1673ffffffffffffffffffffffffffffffffffffffff16815260200190815260200160002060008373ffffffffffffffffffffffffffffffffffffffff1673ffffffffffffffffffffffffffffffffffffffff16815260200190815260200160002060009054906101000a900460ff16905092915050565b600a600182611b15919061365a565b81548110611b2657611b2561368e565b5b906000526020600020906006020160030160009054906101000a900473ffffffffffffffffffffffffffffffffffffffff1673ffffffffffffffffffffffffffffffffffffffff163373ffffffffffffffffffffffffffffffffffffffff1614611bc5576040517f08c379a0000000000000000000000000000000000000000000000000000000008152600401611bbc90613c1e565b60405180910390fd5b6001600a600183611bd6919061365a565b81548110611be757611be661368e565b5b906000526020600020906006020160050160006101000a81548160ff02191690831515021790555050565b6000600860003373ffffffffffffffffffffffffffffffffffffffff1673ffffffffffffffffffffffffffffffffffffffff16815260200190815260200160002054905090565b600a600182611c68919061365a565b81548110611c7957611c7861368e565b5b906000526020600020906006020160050160009054906101000a900460ff16611cd7576040517f08c379a0000000000000000000000000000000000000000000000000000000008152600401611cce90613c8a565b60405180910390fd5b611ce18282610815565b5050565b60007f01ffc9a7000000000000000000000000000000000000000000000000000000007bffffffffffffffffffffffffffffffffffffffffffffffffffffffff1916827bffffffffffffffffffffffffffffffffffffffffffffffffffffffff1916149050919050565b60008073ffffffffffffffffffffffffffffffffffffffff166002600084815260200190815260200160002060009054906101000a900473ffffffffffffffffffffffffffffffffffffffff1673ffffffffffffffffffffffffffffffffffffffff1614159050919050565b600033905090565b816004600083815260200190815260200160002060006101000a81548173ffffffffffffffffffffffffffffffffffffffff021916908373ffffffffffffffffffffffffffffffffffffffff160217905550808273ffffffffffffffffffffffffffffffffffffffff16611e3683610d86565b73ffffffffffffffffffffffffffffffffffffffff167f8c5be1e5ebec7d5bd14f71427d1e84f3dd0314c0f7b2291e5b200ac8c7c3b92560405160405180910390a45050565b6000611e8782611d4f565b611ec6576040517f08c379a0000000000000000000000000000000000000000000000000000000008152600401611ebd90613d1c565b60405180910390fd5b6000611ed183610d86565b90508073ffffffffffffffffffffffffffffffffffffffff168473ffffffffffffffffffffffffffffffffffffffff161480611f135750611f128185611a72565b5b80611f5157508373ffffffffffffffffffffffffffffffffffffffff16611f3984610790565b73ffffffffffffffffffffffffffffffffffffffff16145b91505092915050565b8273ffffffffffffffffffffffffffffffffffffffff16611f7a82610d86565b73ffffffffffffffffffffffffffffffffffffffff1614611fd0576040517f08c379a0000000000000000000000000000000000000000000000000000000008152600401611fc790613dae565b60405180910390fd5b600073ffffffffffffffffffffffffffffffffffffffff168273ffffffffffffffffffffffffffffffffffffffff160361203f576040517f08c379a000000000000000000000000000000000000000000000000000000000815260040161203690613e40565b60405180910390fd5b61204a83838361251d565b612055600082611dc3565b6001600360008573ffffffffffffffffffffffffffffffffffffffff1673ffffffffffffffffffffffffffffffffffffffff16815260200190815260200160002060008282546120a5919061365a565b925050819055506001600360008473ffffffffffffffffffffffffffffffffffffffff1673ffffffffffffffffffffffffffffffffffffffff16815260200190815260200160002060008282546120fc9190613925565b92505081905550816002600083815260200190815260200160002060006101000a81548173ffffffffffffffffffffffffffffffffffffffff021916908373ffffffffffffffffffffffffffffffffffffffff160217905550808273ffffffffffffffffffffffffffffffffffffffff168473ffffffffffffffffffffffffffffffffffffffff167fddf252ad1be2c89b69c2b068fc378daa952ba7f163c4a11628f55a4df523b3ef60405160405180910390a46121bb838383612522565b505050565b8173ffffffffffffffffffffffffffffffffffffffff168373ffffffffffffffffffffffffffffffffffffffff160361222e576040517f08c379a000000000000000000000000000000000000000000000000000000000815260040161222590613eac565b60405180910390fd5b80600560008573ffffffffffffffffffffffffffffffffffffffff1673ffffffffffffffffffffffffffffffffffffffff16815260200190815260200160002060008473ffffffffffffffffffffffffffffffffffffffff1673ffffffffffffffffffffffffffffffffffffffff16815260200190815260200160002060006101000a81548160ff0219169083151502179055508173ffffffffffffffffffffffffffffffffffffffff168373ffffffffffffffffffffffffffffffffffffffff167f17307eab39ab6107e8899845ad3d59bd9653f200f220920489ca2b5937696c318360405161231f9190612aaa565b60405180910390a3505050565b612346828260405180602001604052806000815250612527565b5050565b612355848484611f5a565b61236184848484612582565b6123a0576040517f08c379a000000000000000000000000000000000000000000000000000000000815260040161239790613f3e565b60405180910390fd5b50505050565b606060405180602001604052806000815250905090565b606060008203612404576040518060400160405280600181526020017f30000000000000000000000000000000000000000000000000000000000000008152509050612518565b600082905060005b6000821461243657808061241f9061397b565b915050600a8261242f9190613f8d565b915061240c565b60008167ffffffffffffffff81111561245257612451612ffb565b5b6040519080825280601f01601f1916602001820160405280156124845781602001600182028036833780820191505090505b5090505b600085146125115760018261249d919061365a565b9150600a856124ac9190613fbe565b60306124b89190613925565b60f81b8183815181106124ce576124cd61368e565b5b60200101907effffffffffffffffffffffffffffffffffffffffffffffffffffffffffffff1916908160001a905350600a8561250a9190613f8d565b9450612488565b8093505050505b919050565b505050565b505050565b6125318383612709565b61253e6000848484612582565b61257d576040517f08c379a000000000000000000000000000000000000000000000000000000000815260040161257490613f3e565b60405180910390fd5b505050565b60006125a38473ffffffffffffffffffffffffffffffffffffffff166128e2565b156126fc578373ffffffffffffffffffffffffffffffffffffffff1663150b7a026125cc611dbb565b8786866040518563ffffffff1660e01b81526004016125ee9493929190614044565b6020604051808303816000875af192505050801561262a57506040513d601f19601f8201168201806040525081019061262791906140a5565b60015b6126ac573d806000811461265a576040519150601f19603f3d011682016040523d82523d6000602084013e61265f565b606091505b5060008151036126a4576040517f08c379a000000000000000000000000000000000000000000000000000000000815260040161269b90613f3e565b60405180910390fd5b805181602001fd5b63150b7a0260e01b7bffffffffffffffffffffffffffffffffffffffffffffffffffffffff1916817bffffffffffffffffffffffffffffffffffffffffffffffffffffffff191614915050612701565b600190505b949350505050565b600073ffffffffffffffffffffffffffffffffffffffff168273ffffffffffffffffffffffffffffffffffffffff1603612778576040517f08c379a000000000000000000000000000000000000000000000000000000000815260040161276f9061411e565b60405180910390fd5b61278181611d4f565b156127c1576040517f08c379a00000000000000000000000000000000000000000000000000000000081526004016127b89061418a565b60405180910390fd5b6127cd6000838361251d565b6001600360008473ffffffffffffffffffffffffffffffffffffffff1673ffffffffffffffffffffffffffffffffffffffff168152602001908152602001600020600082825461281d9190613925565b92505081905550816002600083815260200190815260200160002060006101000a81548173ffffffffffffffffffffffffffffffffffffffff021916908373ffffffffffffffffffffffffffffffffffffffff160217905550808273ffffffffffffffffffffffffffffffffffffffff16600073ffffffffffffffffffffffffffffffffffffffff167fddf252ad1be2c89b69c2b068fc378daa952ba7f163c4a11628f55a4df523b3ef60405160405180910390a46128de60008383612522565b5050565b6000808273ffffffffffffffffffffffffffffffffffffffff163b119050919050565b6040518060c00160405280600081526020016060815260200160008152602001600073ffffffffffffffffffffffffffffffffffffffff168152602001600081526020016000151581525090565b82805461295f9061326b565b90600052602060002090601f01602090048101928261298157600085556129c8565b82601f1061299a57805160ff19168380011785556129c8565b828001600101855582156129c8579182015b828111156129c75782518255916020019190600101906129ac565b5b5090506129d591906129d9565b5090565b5b808211156129f25760008160009055506001016129da565b5090565b6000604051905090565b600080fd5b600080fd5b60007fffffffff0000000000000000000000000000000000000000000000000000000082169050919050565b612a3f81612a0a565b8114612a4a57600080fd5b50565b600081359050612a5c81612a36565b92915050565b600060208284031215612a7857612a77612a00565b5b6000612a8684828501612a4d565b91505092915050565b60008115159050919050565b612aa481612a8f565b82525050565b6000602082019050612abf6000830184612a9b565b92915050565b600081519050919050565b600082825260208201905092915050565b60005b83811015612aff578082015181840152602081019050612ae4565b83811115612b0e576000848401525b50505050565b6000601f19601f8301169050919050565b6000612b3082612ac5565b612b3a8185612ad0565b9350612b4a818560208601612ae1565b612b5381612b14565b840191505092915050565b60006020820190508181036000830152612b788184612b25565b905092915050565b6000819050919050565b612b9381612b80565b8114612b9e57600080fd5b50565b600081359050612bb081612b8a565b92915050565b600060208284031215612bcc57612bcb612a00565b5b6000612bda84828501612ba1565b91505092915050565b600073ffffffffffffffffffffffffffffffffffffffff82169050919050565b6000612c0e82612be3565b9050919050565b612c1e81612c03565b82525050565b6000602082019050612c396000830184612c15565b92915050565b612c4881612c03565b8114612c5357600080fd5b50565b600081359050612c6581612c3f565b92915050565b60008060408385031215612c8257612c81612a00565b5b6000612c9085828601612c56565b9250506020612ca185828601612ba1565b9150509250929050565b612cb481612b80565b82525050565b6000602082019050612ccf6000830184612cab565b92915050565b600080600060608486031215612cee57612ced612a00565b5b6000612cfc86828701612c56565b9350506020612d0d86828701612c56565b9250506040612d1e86828701612ba1565b9150509250925092565b60008060408385031215612d3f57612d3e612a00565b5b6000612d4d85828601612ba1565b9250506020612d5e85828601612ba1565b9150509250929050565b600060c082019050612d7d6000830189612cab565b8181036020830152612d8f8188612b25565b9050612d9e6040830187612cab565b612dab6060830186612c15565b612db86080830185612cab565b612dc560a0830184612a9b565b979650505050505050565b600060208284031215612de657612de5612a00565b5b6000612df484828501612c56565b91505092915050565b612e0681612b80565b82525050565b600082825260208201905092915050565b6000612e2882612ac5565b612e328185612e0c565b9350612e42818560208601612ae1565b612e4b81612b14565b840191505092915050565b612e5f81612c03565b82525050565b612e6e81612a8f565b82525050565b600060c083016000830151612e8c6000860182612dfd565b5060208301518482036020860152612ea48282612e1d565b9150506040830151612eb96040860182612dfd565b506060830151612ecc6060860182612e56565b506080830151612edf6080860182612dfd565b5060a0830151612ef260a0860182612e65565b508091505092915050565b60006020820190508181036000830152612f178184612e74565b905092915050565b612f2881612a8f565b8114612f3357600080fd5b50565b600081359050612f4581612f1f565b92915050565b60008060408385031215612f6257612f61612a00565b5b6000612f7085828601612c56565b9250506020612f8185828601612f36565b9150509250929050565b600060ff82169050919050565b612fa181612f8b565b8114612fac57600080fd5b50565b600081359050612fbe81612f98565b92915050565b600060208284031215612fda57612fd9612a00565b5b6000612fe884828501612faf565b91505092915050565b600080fd5b600080fd5b7f4e487b7100000000000000000000000000000000000000000000000000000000600052604160045260246000fd5b61303382612b14565b810181811067ffffffffffffffff8211171561305257613051612ffb565b5b80604052505050565b60006130656129f6565b9050613071828261302a565b919050565b600067ffffffffffffffff82111561309157613090612ffb565b5b61309a82612b14565b9050602081019050919050565b82818337600083830152505050565b60006130c96130c484613076565b61305b565b9050828152602081018484840111156130e5576130e4612ff6565b5b6130f08482856130a7565b509392505050565b600082601f83011261310d5761310c612ff1565b5b813561311d8482602086016130b6565b91505092915050565b600080600080608085870312156131405761313f612a00565b5b600061314e87828801612c56565b945050602061315f87828801612c56565b935050604061317087828801612ba1565b925050606085013567ffffffffffffffff81111561319157613190612a05565b5b61319d878288016130f8565b91505092959194509250565b6000806000606084860312156131c2576131c1612a00565b5b60006131d086828701612c56565b93505060206131e186828701612ba1565b92505060406131f286828701612ba1565b9150509250925092565b6000806040838503121561321357613212612a00565b5b600061322185828601612c56565b925050602061323285828601612c56565b9150509250929050565b7f4e487b7100000000000000000000000000000000000000000000000000000000600052602260045260246000fd5b6000600282049050600182168061328357607f821691505b6020821081036132965761329561323c565b5b50919050565b7f4552433732313a20617070726f76656420717565727920666f72206e6f6e657860008201527f697374656e7420746f6b656e0000000000000000000000000000000000000000602082015250565b60006132f8602c83612ad0565b91506133038261329c565b604082019050919050565b60006020820190508181036000830152613327816132eb565b9050919050565b7f4552433732313a20617070726f76616c20746f2063757272656e74206f776e6560008201527f7200000000000000000000000000000000000000000000000000000000000000602082015250565b600061338a602183612ad0565b91506133958261332e565b604082019050919050565b600060208201905081810360008301526133b98161337d565b9050919050565b7f4552433732313a20617070726f76652063616c6c6572206973206e6f74206f7760008201527f6e6572206e6f7220617070726f76656420666f7220616c6c0000000000000000602082015250565b600061341c603883612ad0565b9150613427826133c0565b604082019050919050565b6000602082019050818103600083015261344b8161340f565b9050919050565b7f3800000000000000000000000000000000000000000000000000000000000000600082015250565b6000613488600183612ad0565b915061349382613452565b602082019050919050565b600060208201905081810360008301526134b78161347b565b9050919050565b600081905092915050565b50565b60006134d96000836134be565b91506134e4826134c9565b600082019050919050565b60006134fa826134cc565b9150819050919050565b7f3900000000000000000000000000000000000000000000000000000000000000600082015250565b600061353a600183612ad0565b915061354582613504565b602082019050919050565b600060208201905081810360008301526135698161352d565b9050919050565b60006040820190506135856000830185612c15565b6135926020830184612cab565b9392505050565b7f4552433732313a207472616e736665722063616c6c6572206973206e6f74206f60008201527f776e6572206e6f7220617070726f766564000000000000000000000000000000602082015250565b60006135f5603183612ad0565b915061360082613599565b604082019050919050565b60006020820190508181036000830152613624816135e8565b9050919050565b7f4e487b7100000000000000000000000000000000000000000000000000000000600052601160045260246000fd5b600061366582612b80565b915061367083612b80565b9250828210156136835761368261362b565b5b828203905092915050565b7f4e487b7100000000000000000000000000000000000000000000000000000000600052603260045260246000fd5b7f3200000000000000000000000000000000000000000000000000000000000000600082015250565b60006136f3600183612ad0565b91506136fe826136bd565b602082019050919050565b60006020820190508181036000830152613722816136e6565b9050919050565b7f4552433732313a206f776e657220717565727920666f72206e6f6e657869737460008201527f656e7420746f6b656e0000000000000000000000000000000000000000000000602082015250565b6000613785602983612ad0565b915061379082613729565b604082019050919050565b600060208201905081810360008301526137b481613778565b9050919050565b7f4552433732313a2062616c616e636520717565727920666f7220746865207a6560008201527f726f206164647265737300000000000000000000000000000000000000000000602082015250565b6000613817602a83612ad0565b9150613822826137bb565b604082019050919050565b600060208201905081810360008301526138468161380a565b9050919050565b7f3300000000000000000000000000000000000000000000000000000000000000600082015250565b6000613883600183612ad0565b915061388e8261384d565b602082019050919050565b600060208201905081810360008301526138b281613876565b9050919050565b7f3400000000000000000000000000000000000000000000000000000000000000600082015250565b60006138ef600183612ad0565b91506138fa826138b9565b602082019050919050565b6000602082019050818103600083015261391e816138e2565b9050919050565b600061393082612b80565b915061393b83612b80565b9250827fffffffffffffffffffffffffffffffffffffffffffffffffffffffffffffffff038211156139705761396f61362b565b5b828201905092915050565b600061398682612b80565b91507fffffffffffffffffffffffffffffffffffffffffffffffffffffffffffffffff82036139b8576139b761362b565b5b600182019050919050565b7f4552433732314d657461646174613a2055524920717565727920666f72206e6f60008201527f6e6578697374656e7420746f6b656e0000000000000000000000000000000000602082015250565b6000613a1f602f83612ad0565b9150613a2a826139c3565b604082019050919050565b60006020820190508181036000830152613a4e81613a12565b9050919050565b600081905092915050565b6000613a6b82612ac5565b613a758185613a55565b9350613a85818560208601612ae1565b80840191505092915050565b6000613a9d8285613a60565b9150613aa98284613a60565b91508190509392505050565b7f3100000000000000000000000000000000000000000000000000000000000000600082015250565b6000613aeb600183612ad0565b9150613af682613ab5565b602082019050919050565b60006020820190508181036000830152613b1a81613ade565b9050919050565b7f3700000000000000000000000000000000000000000000000000000000000000600082015250565b6000613b57600183612ad0565b9150613b6282613b21565b602082019050919050565b60006020820190508181036000830152613b8681613b4a565b9050919050565b6000608082019050613ba26000830187612c15565b613baf6020830186612cab565b613bbc6040830185612c15565b613bc96060830184612cab565b95945050505050565b7f3500000000000000000000000000000000000000000000000000000000000000600082015250565b6000613c08600183612ad0565b9150613c1382613bd2565b602082019050919050565b60006020820190508181036000830152613c3781613bfb565b9050919050565b7f3600000000000000000000000000000000000000000000000000000000000000600082015250565b6000613c74600183612ad0565b9150613c7f82613c3e565b602082019050919050565b60006020820190508181036000830152613ca381613c67565b9050919050565b7f4552433732313a206f70657261746f7220717565727920666f72206e6f6e657860008201527f697374656e7420746f6b656e0000000000000000000000000000000000000000602082015250565b6000613d06602c83612ad0565b9150613d1182613caa565b604082019050919050565b60006020820190508181036000830152613d3581613cf9565b9050919050565b7f4552433732313a207472616e736665722066726f6d20696e636f72726563742060008201527f6f776e6572000000000000000000000000000000000000000000000000000000602082015250565b6000613d98602583612ad0565b9150613da382613d3c565b604082019050919050565b60006020820190508181036000830152613dc781613d8b565b9050919050565b7f4552433732313a207472616e7366657220746f20746865207a65726f2061646460008201527f7265737300000000000000000000000000000000000000000000000000000000602082015250565b6000613e2a602483612ad0565b9150613e3582613dce565b604082019050919050565b60006020820190508181036000830152613e5981613e1d565b9050919050565b7f4552433732313a20617070726f766520746f2063616c6c657200000000000000600082015250565b6000613e96601983612ad0565b9150613ea182613e60565b602082019050919050565b60006020820190508181036000830152613ec581613e89565b9050919050565b7f4552433732313a207472616e7366657220746f206e6f6e20455243373231526560008201527f63656976657220696d706c656d656e7465720000000000000000000000000000602082015250565b6000613f28603283612ad0565b9150613f3382613ecc565b604082019050919050565b60006020820190508181036000830152613f5781613f1b565b9050919050565b7f4e487b7100000000000000000000000000000000000000000000000000000000600052601260045260246000fd5b6000613f9882612b80565b9150613fa383612b80565b925082613fb357613fb2613f5e565b5b828204905092915050565b6000613fc982612b80565b9150613fd483612b80565b925082613fe457613fe3613f5e565b5b828206905092915050565b600081519050919050565b600082825260208201905092915050565b600061401682613fef565b6140208185613ffa565b9350614030818560208601612ae1565b61403981612b14565b840191505092915050565b60006080820190506140596000830187612c15565b6140666020830186612c15565b6140736040830185612cab565b8181036060830152614085818461400b565b905095945050505050565b60008151905061409f81612a36565b92915050565b6000602082840312156140bb576140ba612a00565b5b60006140c984828501614090565b91505092915050565b7f4552433732313a206d696e7420746f20746865207a65726f2061646472657373600082015250565b6000614108602083612ad0565b9150614113826140d2565b602082019050919050565b60006020820190508181036000830152614137816140fb565b9050919050565b7f4552433732313a20746f6b656e20616c7265616479206d696e74656400000000600082015250565b6000614174601c83612ad0565b915061417f8261413e565b602082019050919050565b600060208201905081810360008301526141a381614167565b905091905056fea264697066735822122088dc7ba6252cadb494adce427303d5d5fa972994a0818ef95eabb79aff05400064736f6c634300080d0033",
  "immutableReferences": {},
  "source": "// SPDX-License-Identifier: MIT\r\n\r\n// specifies solidity version required\r\npragma solidity ^0.8.13;\r\n\r\n// @dev import dependencies\r\nimport \"./ERC721.sol\";\r\n\r\n/** @title Module 8: Final Coding Assignment */\r\n/// @author Manvinderjit Rupal\r\n/// @notice The contract allows two NFT movie tickets of different properties or values to be swapped with ether exchange.\r\n///         They are based on ERC721 standard with the OpenZepplin one being used in the contract\r\n\r\n/// @dev MovieTicketNFTSwap contract definition starts here\r\ncontract MovieTicketNFTSwap is ERC721 {\r\n    \r\n    /// @dev state variable declaration\r\n    ///      movieTitles mapping stores the titles of movies to an integer index\r\n    ///      movieTicketPrices mapping stores the corresponding prices of movies to an integer index\r\n    ///      userEtherBalances mapping stores the amount of ether owed to each user address\r\n    ///      counterTicketId parameter is used as an index for each minted ticket\r\n    mapping(uint256 => string) public movieTitles;\r\n    mapping(uint256 => uint256) public movieTicketPrices;    \r\n    mapping(address => uint256) userEtherBalances;\r\n    uint256 counterTicketId = 1;\r\n    ///      Information for each movie ticket is stored as a custom struct\r\n    struct MovieTicket {\r\n        uint256 ticketId;                   /// index of each ticket, is unique\r\n        string movieTitle;                  /// title of movie\r\n        uint256 ticketPriceInWei;           /// price in Wei paid for ticket\r\n        address ticketOwner;                /// owner address for the ticket\r\n        uint256 validTillBlock;             /// the block till which the ticket is valid, used instead of block.timestamp\r\n        bool isSwappable;                   /// stores if the ticket is swappable or not, default is false \r\n    }   \r\n    ///      movieTickets array is of MovieTicket type and stores the information of movies tickets\r\n    MovieTicket[] public movieTickets;\r\n\r\n    /// @dev event declaration\r\n    event BoughtTickets(address, uint256);                      // Emitted when ticket bought successfully\r\n    event SwappedTickets(address, uint256, address, uint256);   // Emitted when ticket swapped successfully\r\n    event WithdrawBalance(address, uint256);                    // Emitted when funds withdrawn successfully\r\n\r\n    ///@dev constructor initialization\r\n    constructor() payable ERC721(\"MovieTicket\", \"MTKT\") {                          \r\n        movieTitles[1] = \"Avengers\";                            // Name for first movie initialized as Avengers\r\n        movieTitles[2] = \"Starwars\";                            // Name for second movie initialized asStarwars\r\n        movieTicketPrices[1] = 1000000000000000000;             // Ticket price for Avengers, = 1e18 = 1 ether\r\n        movieTicketPrices[2] = 2000000000000000000;             // Ticket price for Starwars  = 2e18 = 2 ether\r\n    }\r\n\r\n    /// @dev checkTicketValidity modifier ensures that the ticket is valid for at least two more blocks\r\n    /// @param _ticketId Denotes the index of the movie ticket NFT to be checked for validity\r\n    /// @notice ensures that the movie ticket is valid, not expired\r\n    modifier checkTicketValidity (uint256 _ticketId) {\r\n        require(movieTickets[_ticketId-1].validTillBlock > block.number + 2, \"1\"); // Error: Expired or about to expire tickets can not be swapped\r\n        _;\r\n    }\r\n\r\n    /// @dev checkSwappabilityOfTickets modifier implements the design choice: a movie ticket can only be exchanged with an equal or higher priced ticket\r\n    /// @param _myTicketId Denotes the index of the movie ticket of the requesting account\r\n    /// @param _otherTicketID Denotes the index of the higher priced movie ticket that a ticket will be exchanged with\r\n    /// @notice ensures that the two supplied tickets are eligible for swap    \r\n    modifier checkSwappabilityOfTickets (uint256 _myTicketId, uint256 _otherTicketID) {        \r\n        // Only user with a lower ticket value can initiate transfer to avoid complications\r\n        require(movieTickets[_myTicketId-1].ticketPriceInWei <= movieTickets[_otherTicketID-1].ticketPriceInWei, \"2\"); // Error: Can only swap with a higher or equal priced ticket!\r\n        _;\r\n    }\r\n\r\n    /// @dev buyMovieTicket function allows users to mint a movie ticket    \r\n    /// @param _movieId denotes the index of the movie (movieId) for which the ticket must be bought/minted\r\n    /// @notice allows users to buy a ticket as an NFT    \r\n    function buyMovieTicket ( uint8 _movieId ) public payable {\r\n        /// ensures that the movieId must be valid, 1 for Avengers, 2 for Starwars\r\n        require(_movieId > 0 && _movieId <= 2, \"3\"); // Error: Movie id must be valid\r\n        /// ensures that the value of ether sent must be equal to the ticket price declared\r\n        require(msg.value == movieTicketPrices[_movieId], \"4\"); // Error: Please pay correct amount for ticket\r\n        /// creates a new object of MovieTicket type\r\n        MovieTicket memory _movieTicket = MovieTicket ({\r\n            ticketId : counterTicketId,\r\n            movieTitle : movieTitles[_movieId],\r\n            ticketPriceInWei: movieTicketPrices[_movieId],\r\n            ticketOwner: payable(msg.sender),            \r\n            validTillBlock: (block.number + 10), //Instead of using timestamp, assuming the number of blocks till which ticket is valid\r\n            isSwappable: false            \r\n        });\r\n        /// object is pushed to movie tickets array\r\n        movieTickets.push(_movieTicket);\r\n        /// the movie ticket is minted with ERC721 _safeMint function\r\n        _safeMint(msg.sender, counterTicketId);\r\n        /// event BoughtTickets emitted\r\n        emit BoughtTickets(msg.sender, counterTicketId);\r\n        /// counter increemented to store the index of next ticket\r\n        counterTicketId++;\r\n    }             \r\n\r\n    /// @dev makeTicketSwapable function allows an account address to make a ticket they own available for swapping with a lower-priced ticket    \r\n    /// @param _tokenId the index of the ticket that the owner wishes to list for swapping\r\n    /// @notice allows an owner to list their ticket for swapping with lower priced tickets\r\n    function makeTicketSwapable(uint256 _tokenId) public {\r\n        require(msg.sender == movieTickets[_tokenId-1].ticketOwner, \"5\"); //Error: Only ticket owner can list token for swapping!\r\n        movieTickets[_tokenId-1].isSwappable = true;\r\n    }\r\n\r\n    /// @dev findPriceDifference allows a user to check how much money they have to pay with for swapping with a higher priced ticket\r\n    /// guarded by:\r\n    ///      checkSwappabilityOfTickets modifer\r\n    /// @param _myTokenId the index of the lower priced ticket that an account wants to sell\r\n    /// @param _otherTokenID the index of the higher priced ticket that the account wants to exchange the lower priced ticket for\r\n    /// @return (uint256) returns the price difference of the two tickets\r\n    /// @notice allows a user to find how much they have to pay to exchange their ticket with another, higher priced ticket\r\n    function findPriceDifference (uint256 _myTokenId, uint256 _otherTokenID) external view \r\n        checkSwappabilityOfTickets(_myTokenId, _otherTokenID) \r\n    returns (uint256) {\r\n        return (movieTickets[_otherTokenID-1].ticketPriceInWei - movieTickets[_myTokenId-1].ticketPriceInWei);\r\n    }\r\n\r\n    /// @dev approveTransfer function enables the account with higher-priced ticket to allow another account having a lower-priced ticket to initiate a swap\r\n    ///      uses the approve method of Open Zepplin ERC721 standard\r\n    /// @param _recipient the address of the account owning the lower priced ticket\r\n    /// @param _tokenId the index of higher priced ticket owned by the account calling this function (approving trade)\r\n    /// @notice the owner of higher priced ticket approves a trade request from the account having a lower priced ticket\r\n    function approveTransfer (address _recipient, uint256 _tokenId) public {        \r\n        // ensures that the ticket is swappable\r\n        require(movieTickets[_tokenId-1].isSwappable, \"6\"); // Error: The ticket should be listed for swapping\r\n        approve(_recipient, _tokenId);\r\n    }\r\n\r\n    /// @dev function swapTicket changes the ticketOwner of the supplied tickets\r\n    /// guarded by:\r\n    ///      checkTicketValidity\r\n    ///      checkSwappabilityOfTickets\r\n    /// @param _recipient denotes owner account address of the higher priced ticket\r\n    /// @param _myTokenId denotes the index of the lower priced ticket, owned by request initiator account\r\n    /// @param _otherTokenID denotes the index of the higher priced ticket, owned by the _recipient account\r\n    /// @notice allows the owners of two tickets to swap them\r\n    function swapTicket (address _recipient, uint256 _myTokenId, uint256 _otherTokenID) public payable \r\n        checkTicketValidity (_myTokenId)\r\n        checkTicketValidity(_otherTokenID)\r\n        checkSwappabilityOfTickets(_myTokenId, _otherTokenID)\r\n    {                \r\n        // Payment of the price difference must be provided by lower-priced ticket\r\n        require(msg.value == movieTickets[_otherTokenID-1].ticketPriceInWei - movieTickets[_myTokenId-1].ticketPriceInWei, \"7\"); // Error: Please provide right payment for transfer\r\n        \r\n        // Transfer sender ticket to receiver\r\n        transferFrom(msg.sender, _recipient, _myTokenId);     \r\n        movieTickets[_myTokenId-1].ticketOwner = _recipient;\r\n        // Transfer receiver ticket to sender\r\n        transferFrom(_recipient, msg.sender, _otherTokenID);\r\n        movieTickets[_otherTokenID-1].ticketOwner = msg.sender;\r\n        // Add the ether value to the recipient's balance\r\n        userEtherBalances[_recipient] += msg.value;\r\n        // Set isSwappable attribute of tickets false\r\n        movieTickets[_myTokenId-1].isSwappable = false;\r\n        movieTickets[_otherTokenID-1].isSwappable = false;\r\n        // emit the SwappedTickets event\r\n        emit SwappedTickets(msg.sender, _myTokenId, _recipient, _otherTokenID);\r\n    }\r\n    \r\n    /// @dev withdrawMyEtherBalance function allows a request sending account to withdraw their ether balance\r\n    /// emits the WithdrawBalance event on successful withdrawal\r\n    /// @notice allows a user who has some balance in their account to withdraw it\r\n    function withdrawMyEtherBalance () external payable {\r\n        // Ensures that the user is owed some ether\r\n        require(userEtherBalances[msg.sender] > 0, \"8\"); // Error: Nothing to withdraw\r\n        // Set user balance to zero\r\n        uint256 _userEtherBalance = userEtherBalances[msg.sender];\r\n        userEtherBalances[msg.sender] = 0;\r\n        // Transfer balance to user\r\n        (bool sent, ) = (msg.sender).call{value: _userEtherBalance, gas:2300 }(\"\");\r\n        require(sent, \"9\"); // Error: Failed to send Ether\r\n        // Emit the withdrawl event\r\n        emit WithdrawBalance(msg.sender, _userEtherBalance);\r\n    }\r\n    \r\n    /// @dev getTicketInformation function provides the information for a given ticket index\r\n    /// @param _ticketIndex the index of the ticket for which information is being requested\r\n    /// @return an object of MovieTicket type having the information for the given ticket index\r\n    /// @notice provides all information about the ticket \r\n    function getTicketInformation (uint256 _ticketIndex) public view returns (MovieTicket memory) {         \r\n         return movieTickets[_ticketIndex-1];\r\n    }\r\n\r\n    /// @dev getContractEtherBalance function returns the Ether balance of the contract\r\n    /// @return (uint256) ether in wei held in the contract address\r\n    /// @notice provides how much ether is in the contract account\r\n    function getContractEtherBalance () public view returns (uint256) {\r\n        return address(this).balance;\r\n    }\r\n\r\n    /// @dev getMyEtherBalance function returns the balance of msg.sender owed by the contract \r\n    /// @return (uint256) ether in wei owed to msg.send by the contract address\r\n    /// @notice shows how much ether an owner has in the contract\r\n    function getMyEtherBalance () public view returns (uint256) {\r\n        return userEtherBalances[msg.sender];\r\n    }\r\n} /// @dev movieTicketNFT contract definition ends here\r\n",
  "sourcePath": "D:\\csbc-2010\\module8test\\contracts\\MovieTicketNFTSwap.sol",
  "compiler": {
    "name": "solc",
    "version": "0.8.13+commit.abaa5c0e.Emscripten.clang"
  },
  "schemaVersion": "3.4.4",
  "updatedAt": "2022-04-02T10:12:40.760Z",
  "networkType": "ethereum",
  "devdoc": {
    "details": "MovieTicketNFTSwap contract definition starts here",
    "events": {
      "BoughtTickets(address,uint256)": {
        "details": "event declaration"
      }
    },
    "kind": "dev",
    "methods": {
      "approve(address,uint256)": {
        "details": "See {IERC721-approve}."
      },
      "approveTransfer(address,uint256)": {
        "details": "approveTransfer function enables the account with higher-priced ticket to allow another account having a lower-priced ticket to initiate a swap      uses the approve method of Open Zepplin ERC721 standard",
        "params": {
          "_recipient": "the address of the account owning the lower priced ticket",
          "_tokenId": "the index of higher priced ticket owned by the account calling this function (approving trade)"
        }
      },
      "balanceOf(address)": {
        "details": "See {IERC721-balanceOf}."
      },
      "buyMovieTicket(uint8)": {
        "details": "buyMovieTicket function allows users to mint a movie ticket    ",
        "params": {
          "_movieId": "denotes the index of the movie (movieId) for which the ticket must be bought/minted"
        }
      },
      "constructor": {
        "details": "constructor initialization"
      },
      "findPriceDifference(uint256,uint256)": {
        "details": "findPriceDifference allows a user to check how much money they have to pay with for swapping with a higher priced ticket guarded by:      checkSwappabilityOfTickets modifer",
        "params": {
          "_myTokenId": "the index of the lower priced ticket that an account wants to sell",
          "_otherTokenID": "the index of the higher priced ticket that the account wants to exchange the lower priced ticket for"
        },
        "returns": {
          "_0": "(uint256) returns the price difference of the two tickets"
        }
      },
      "getApproved(uint256)": {
        "details": "See {IERC721-getApproved}."
      },
      "getContractEtherBalance()": {
        "details": "getContractEtherBalance function returns the Ether balance of the contract",
        "returns": {
          "_0": "(uint256) ether in wei held in the contract address"
        }
      },
      "getMyEtherBalance()": {
        "details": "getMyEtherBalance function returns the balance of msg.sender owed by the contract ",
        "returns": {
          "_0": "(uint256) ether in wei owed to msg.send by the contract address"
        }
      },
      "getTicketInformation(uint256)": {
        "details": "getTicketInformation function provides the information for a given ticket index",
        "params": {
          "_ticketIndex": "the index of the ticket for which information is being requested"
        },
        "returns": {
          "_0": "an object of MovieTicket type having the information for the given ticket index"
        }
      },
      "isApprovedForAll(address,address)": {
        "details": "See {IERC721-isApprovedForAll}."
      },
      "makeTicketSwapable(uint256)": {
        "details": "makeTicketSwapable function allows an account address to make a ticket they own available for swapping with a lower-priced ticket    ",
        "params": {
          "_tokenId": "the index of the ticket that the owner wishes to list for swapping"
        }
      },
      "name()": {
        "details": "See {IERC721Metadata-name}."
      },
      "ownerOf(uint256)": {
        "details": "See {IERC721-ownerOf}."
      },
      "safeTransferFrom(address,address,uint256)": {
        "details": "See {IERC721-safeTransferFrom}."
      },
      "safeTransferFrom(address,address,uint256,bytes)": {
        "details": "See {IERC721-safeTransferFrom}."
      },
      "setApprovalForAll(address,bool)": {
        "details": "See {IERC721-setApprovalForAll}."
      },
      "supportsInterface(bytes4)": {
        "details": "See {IERC165-supportsInterface}."
      },
      "swapTicket(address,uint256,uint256)": {
        "details": "function swapTicket changes the ticketOwner of the supplied tickets guarded by:      checkTicketValidity      checkSwappabilityOfTickets",
        "params": {
          "_myTokenId": "denotes the index of the lower priced ticket, owned by request initiator account",
          "_otherTokenID": "denotes the index of the higher priced ticket, owned by the _recipient account",
          "_recipient": "denotes owner account address of the higher priced ticket"
        }
      },
      "symbol()": {
        "details": "See {IERC721Metadata-symbol}."
      },
      "tokenURI(uint256)": {
        "details": "See {IERC721Metadata-tokenURI}."
      },
      "transferFrom(address,address,uint256)": {
        "details": "See {IERC721-transferFrom}."
      },
      "withdrawMyEtherBalance()": {
        "details": "withdrawMyEtherBalance function allows a request sending account to withdraw their ether balance emits the WithdrawBalance event on successful withdrawal"
      }
    },
    "stateVariables": {
      "movieTitles": {
        "details": "state variable declaration      movieTitles mapping stores the titles of movies to an integer index      movieTicketPrices mapping stores the corresponding prices of movies to an integer index      userEtherBalances mapping stores the amount of ether owed to each user address      counterTicketId parameter is used as an index for each minted ticket"
      }
    },
    "version": 1
  },
  "userdoc": {
    "kind": "user",
    "methods": {
      "approveTransfer(address,uint256)": {
        "notice": "the owner of higher priced ticket approves a trade request from the account having a lower priced ticket"
      },
      "buyMovieTicket(uint8)": {
        "notice": "allows users to buy a ticket as an NFT    "
      },
      "findPriceDifference(uint256,uint256)": {
        "notice": "allows a user to find how much they have to pay to exchange their ticket with another, higher priced ticket"
      },
      "getContractEtherBalance()": {
        "notice": "provides how much ether is in the contract account"
      },
      "getMyEtherBalance()": {
        "notice": "shows how much ether an owner has in the contract"
      },
      "getTicketInformation(uint256)": {
        "notice": "provides all information about the ticket "
      },
      "makeTicketSwapable(uint256)": {
        "notice": "allows an owner to list their ticket for swapping with lower priced tickets"
      },
      "movieTickets(uint256)": {
        "notice": "movieTickets array is of MovieTicket type and stores the information of movies tickets"
      },
      "swapTicket(address,uint256,uint256)": {
        "notice": "allows the owners of two tickets to swap them"
      },
      "withdrawMyEtherBalance()": {
        "notice": "allows a user who has some balance in their account to withdraw it"
      }
    },
    "version": 1
  }
}